{
  "contractName": "CocoaBeanFarmer",
  "abi": [
    {
      "constant": false,
      "inputs": [],
      "name": "getTopPendingAction",
      "outputs": [
        {
          "name": "",
          "type": "int256"
        }
      ],
      "payable": false,
      "stateMutability": "nonpayable",
      "type": "function"
    },
    {
      "constant": false,
      "inputs": [
        {
          "name": "transactionID",
          "type": "uint256"
        },
        {
          "name": "action",
          "type": "int256"
        }
      ],
      "name": "addPendingTransaction",
      "outputs": [],
      "payable": false,
      "stateMutability": "nonpayable",
      "type": "function"
    },
    {
      "inputs": [
        {
          "name": "initialQuantity",
          "type": "int256"
        },
        {
          "name": "supplyChainTransactionsAddress",
          "type": "address"
        }
      ],
      "payable": false,
      "stateMutability": "nonpayable",
      "type": "constructor"
    },
    {
      "payable": true,
      "stateMutability": "payable",
      "type": "fallback"
    },
    {
      "anonymous": false,
      "inputs": [
        {
          "indexed": true,
          "name": "_id",
          "type": "uint256"
        },
        {
          "indexed": false,
          "name": "_name",
          "type": "string"
        },
        {
          "indexed": false,
          "name": "_description",
          "type": "string"
        },
        {
          "indexed": false,
          "name": "_quantityToSend",
          "type": "uint256"
        }
      ],
      "name": "NewBeanTransaction",
      "type": "event"
    },
    {
      "constant": true,
      "inputs": [],
      "name": "beanBalance",
      "outputs": [
        {
          "name": "",
          "type": "int256"
        }
      ],
      "payable": false,
      "stateMutability": "view",
      "type": "function"
    },
    {
      "constant": false,
      "inputs": [
        {
          "name": "num_beans",
          "type": "int256"
        }
      ],
      "name": "claimBeans",
      "outputs": [],
      "payable": false,
      "stateMutability": "nonpayable",
      "type": "function"
    },
    {
      "constant": true,
      "inputs": [],
      "name": "etherBalance",
      "outputs": [
        {
          "name": "",
          "type": "uint256"
        }
      ],
      "payable": false,
      "stateMutability": "view",
      "type": "function"
    },
    {
      "constant": false,
      "inputs": [
        {
          "name": "name",
          "type": "string"
        },
        {
          "name": "description",
          "type": "string"
        },
        {
          "name": "quantityToSend",
          "type": "uint256"
        }
      ],
      "name": "createBeanTransaction",
      "outputs": [
        {
          "name": "",
          "type": "bool"
        }
      ],
      "payable": false,
      "stateMutability": "nonpayable",
      "type": "function"
    },
    {
      "constant": false,
      "inputs": [
        {
          "name": "transactionID",
          "type": "uint256"
        }
      ],
      "name": "isTransactionAccepted",
      "outputs": [
        {
          "name": "",
          "type": "bool"
        }
      ],
      "payable": false,
      "stateMutability": "nonpayable",
      "type": "function"
    },
    {
      "constant": false,
      "inputs": [
        {
          "name": "transactionID",
          "type": "uint256"
        }
      ],
      "name": "isTransactionRejected",
      "outputs": [
        {
          "name": "",
          "type": "bool"
        }
      ],
      "payable": false,
      "stateMutability": "nonpayable",
      "type": "function"
    },
    {
      "constant": false,
      "inputs": [
        {
          "name": "transactionID",
          "type": "uint256"
        }
      ],
      "name": "getTransactionRejectedMsg",
      "outputs": [
        {
          "name": "",
          "type": "string"
        }
      ],
      "payable": false,
      "stateMutability": "nonpayable",
      "type": "function"
    },
    {
      "constant": false,
      "inputs": [
        {
          "name": "transactionID",
          "type": "uint256"
        }
      ],
      "name": "reclaimRejectedBeans",
      "outputs": [],
      "payable": false,
      "stateMutability": "nonpayable",
      "type": "function"
    },
    {
      "constant": false,
      "inputs": [
        {
          "name": "transactionID",
          "type": "uint256"
        },
        {
          "name": "recipient",
          "type": "address"
        }
      ],
      "name": "sendBeanTransaction",
      "outputs": [],
      "payable": false,
      "stateMutability": "nonpayable",
      "type": "function"
    }
  ],
  "bytecode": "0x60806040526000600255600060035534801561001a57600080fd5b5060405160408061108e83398101806040528101908080519060200190929190805190602001909291905050508160038190555080600560006101000a81548173ffffffffffffffffffffffffffffffffffffffff021916908373ffffffffffffffffffffffffffffffffffffffff160217905550600560009054906101000a900473ffffffffffffffffffffffffffffffffffffffff1673ffffffffffffffffffffffffffffffffffffffff1663f15775c0306040518263ffffffff167c0100000000000000000000000000000000000000000000000000000000028152600401808273ffffffffffffffffffffffffffffffffffffffff1673ffffffffffffffffffffffffffffffffffffffff168152602001915050600060405180830381600087803b15801561014c57600080fd5b505af1158015610160573d6000803e3d6000fd5b50505050600560009054906101000a900473ffffffffffffffffffffffffffffffffffffffff1673ffffffffffffffffffffffffffffffffffffffff16634da8caa13060006040518363ffffffff167c0100000000000000000000000000000000000000000000000000000000028152600401808373ffffffffffffffffffffffffffffffffffffffff1673ffffffffffffffffffffffffffffffffffffffff16815260200182815260200192505050600060405180830381600087803b15801561022a57600080fd5b505af115801561023e573d6000803e3d6000fd5b50505050600560009054906101000a900473ffffffffffffffffffffffffffffffffffffffff1673ffffffffffffffffffffffffffffffffffffffff16639d95f1cc306040518263ffffffff167c0100000000000000000000000000000000000000000000000000000000028152600401808273ffffffffffffffffffffffffffffffffffffffff1673ffffffffffffffffffffffffffffffffffffffff168152602001915050600060405180830381600087803b1580156102ff57600080fd5b505af1158015610313573d6000803e3d6000fd5b505050505050610d66806103286000396000f3006080604052600436106100af576000357c0100000000000000000000000000000000000000000000000000000000900463ffffffff16806328c68e7c146100b157806355dd8bf6146100dc5780637c65bd7e14610121578063896da4eb1461014e578063ad66e52a14610185578063aedfbeaf146101b0578063b1e6937c146101db578063b884c38a14610228578063c6cbb20e146102ce578063e6205170146102fb578063fb449da514610370575b005b3480156100bd57600080fd5b506100c66103b5565b6040518082815260200191505060405180910390f35b3480156100e857600080fd5b50610107600480360381019080803590602001909291905050506103ea565b604051808215151515815260200191505060405180910390f35b34801561012d57600080fd5b5061014c600480360381019080803590602001909291905050506104bf565b005b34801561015a57600080fd5b50610183600480360381019080803590602001909291908035906020019092919050505061066f565b005b34801561019157600080fd5b5061019a6106b7565b6040518082815260200191505060405180910390f35b3480156101bc57600080fd5b506101c56106d6565b6040518082815260200191505060405180910390f35b3480156101e757600080fd5b5061022660048036038101908080359060200190929190803573ffffffffffffffffffffffffffffffffffffffff1690602001909291905050506106e0565b005b34801561023457600080fd5b50610253600480360381019080803590602001909291905050506107c1565b6040518080602001828103825283818151815260200191508051906020019080838360005b83811015610293578082015181840152602081019050610278565b50505050905090810190601f1680156102c05780820380516001836020036101000a031916815260200191505b509250505060405180910390f35b3480156102da57600080fd5b506102f9600480360381019080803590602001909291905050506109c3565b005b34801561030757600080fd5b50610356600480360381019080803590602001908201803590602001919091929391929390803590602001908201803590602001919091929391929390803590602001909291905050506109d1565b604051808215151515815260200191505060405180910390f35b34801561037c57600080fd5b5061039b60048036038101908080359060200190929190505050610c65565b604051808215151515815260200191505060405180910390f35b600060016000806002548154811015156103cb57fe5b9060005260206000200154815260200190815260200160002054905090565b6000600560009054906101000a900473ffffffffffffffffffffffffffffffffffffffff1673ffffffffffffffffffffffffffffffffffffffff166355dd8bf6836040518263ffffffff167c010000000000000000000000000000000000000000000000000000000002815260040180828152602001915050602060405180830381600087803b15801561047d57600080fd5b505af1158015610491573d6000803e3d6000fd5b505050506040513d60208110156104a757600080fd5b81019080805190602001909291905050509050919050565b600560009054906101000a900473ffffffffffffffffffffffffffffffffffffffff1673ffffffffffffffffffffffffffffffffffffffff1663fb449da5826040518263ffffffff167c010000000000000000000000000000000000000000000000000000000002815260040180828152602001915050602060405180830381600087803b15801561055057600080fd5b505af1158015610564573d6000803e3d6000fd5b505050506040513d602081101561057a57600080fd5b8101908080519060200190929190505050151561059657600080fd5b600560009054906101000a900473ffffffffffffffffffffffffffffffffffffffff1673ffffffffffffffffffffffffffffffffffffffff1663f31ca13c826040518263ffffffff167c010000000000000000000000000000000000000000000000000000000002815260040180828152602001915050602060405180830381600087803b15801561062757600080fd5b505af115801561063b573d6000803e3d6000fd5b505050506040513d602081101561065157600080fd5b81019080805190602001909291905050506003540160038190555050565b60008290806001815401808255809150509060018203906000526020600020016000909192909190915055508060016000848152602001908152602001600020819055505050565b60003073ffffffffffffffffffffffffffffffffffffffff1631905090565b6000600354905090565b600560009054906101000a900473ffffffffffffffffffffffffffffffffffffffff1673ffffffffffffffffffffffffffffffffffffffff16638ab0392983836040518363ffffffff167c0100000000000000000000000000000000000000000000000000000000028152600401808381526020018273ffffffffffffffffffffffffffffffffffffffff1673ffffffffffffffffffffffffffffffffffffffff16815260200192505050600060405180830381600087803b1580156107a557600080fd5b505af11580156107b9573d6000803e3d6000fd5b505050505050565b6060600560009054906101000a900473ffffffffffffffffffffffffffffffffffffffff1673ffffffffffffffffffffffffffffffffffffffff1663fb449da5836040518263ffffffff167c010000000000000000000000000000000000000000000000000000000002815260040180828152602001915050602060405180830381600087803b15801561085457600080fd5b505af1158015610868573d6000803e3d6000fd5b505050506040513d602081101561087e57600080fd5b8101908080519060200190929190505050151561089a57600080fd5b600560009054906101000a900473ffffffffffffffffffffffffffffffffffffffff1673ffffffffffffffffffffffffffffffffffffffff1663b884c38a836040518263ffffffff167c010000000000000000000000000000000000000000000000000000000002815260040180828152602001915050600060405180830381600087803b15801561092b57600080fd5b505af115801561093f573d6000803e3d6000fd5b505050506040513d6000823e3d601f19601f82011682018060405250602081101561096957600080fd5b81019080805164010000000081111561098157600080fd5b8281019050602081018481111561099757600080fd5b81518560018202830111640100000000821117156109b457600080fd5b50509291905050509050919050565b806003540160038190555050565b600080600354831215156109e85760009150610c5b565b600560009054906101000a900473ffffffffffffffffffffffffffffffffffffffff1673ffffffffffffffffffffffffffffffffffffffff1663a76f493788888888886040518663ffffffff167c01000000000000000000000000000000000000000000000000000000000281526004018080602001806020018481526020018381038352888882818152602001925080828437820191505083810382528686828181526020019250808284378201915050975050505050505050602060405180830381600087803b158015610abd57600080fd5b505af1158015610ad1573d6000803e3d6000fd5b505050506040513d6020811015610ae757600080fd5b810190808051906020019092919050505090506004819080600181540180825580915050906001820390600052602060002001600090919290919091505550600560009054906101000a900473ffffffffffffffffffffffffffffffffffffffff1673ffffffffffffffffffffffffffffffffffffffff1663898b6558826040518263ffffffff167c010000000000000000000000000000000000000000000000000000000002815260040180828152602001915050600060405180830381600087803b158015610bb757600080fd5b505af1158015610bcb573d6000803e3d6000fd5b505050508260035403600381905550807f2cef987aa623c532456679450adcbde14434b7994400366d670552de1fe50bf58888888888604051808060200180602001848152602001838103835288888281815260200192508082843782019150508381038252868682818152602001925080828437820191505097505050505050505060405180910390a2600191505b5095945050505050565b6000600560009054906101000a900473ffffffffffffffffffffffffffffffffffffffff1673ffffffffffffffffffffffffffffffffffffffff1663fb449da5836040518263ffffffff167c010000000000000000000000000000000000000000000000000000000002815260040180828152602001915050602060405180830381600087803b158015610cf857600080fd5b505af1158015610d0c573d6000803e3d6000fd5b505050506040513d6020811015610d2257600080fd5b810190808051906020019092919050505090509190505600a165627a7a723058202c4824765b5d4a8caee34af3010769742d747a0d6579db1645af5b35b316c7ca0029",
  "source": "pragma solidity ^0.4.26;\n\n/**\n * @dev\n * \n * Here are dev notes:\n *\n * ----------------------------------------------------------------------------\n * @dev Jason is almost done implementing this on front-end - Date: 12/02/2020\n *\n * MVP process for setting up supply chain and transaction exchanges:\n * \n * 1. Deploy SupplyChainTransactions contract from address1\n * 2. Deploy CocoaBeanFarmer contract using SupplyChainTransactions contract address (this address != address1)\n *   1. Set initialQuantity = 100\n * 3. Deploy Manufacturer contract using SupplyChainTransactions contract address (this address is the same as step 2’s address != address1)\n *   1. Set initialBeanCount = 100\n *   2. Set estimatedBeansToCoffeeRatio = 1\n *   3. Set estimatedBeanValueInWei = 1\n * 4. Deploy Carrier contract SupplyChainTransactions contract address (this address is the same as step 2’s address != address1)\n *   1. Set maxCapacityPerTransit = 10\n * 5. Run createBeanTransaction in the CocoaBeanFarmer contract\n *   1. Set name = test1\n *   2. Set description = First test to create bean txn\n *   3. Set quantityToSend = 10\n *\n * ----------------------------------------------------------------------------\n * \n * \n * 6. Accept the newly created transaction by running `acceptTransaction` (of SupplyChainTransactions contract), \n *    passing in transactionID of this transaction\n * 7. \n * \n * ----------------------------------------------------------------------------\n * \n * \n */\n\ncontract SupplyChainNode {\n    \n    uint256[] pendingTransactions;\n    mapping(uint256 => int) transactionToActionId;\n    uint256 index = 0;\n    \n    function addPendingTransaction(uint256 transactionID, int action) {\n        pendingTransactions.push(transactionID);\n        transactionToActionId[transactionID] = action;\n    }\n        \n    function getTopPendingAction() returns (int) {\n        return transactionToActionId[pendingTransactions[index]];\n    }\n    \n    function _removeTopPendingAction() private {\n        index = index + 1;\n    }\n    \n}\n\n\ncontract config {\n    /*\n        Defines constants that any two parties in the supply chain need to define transactions\n        Examples: prices, risk distribution ratios, refund policies, etc.\n        Must be agreed upon between two parties to exist\n    */\n}\n\n\n\ncontract Carrier is SupplyChainNode{\n    /*\n       manages the movement of transactions between two nodes in the supply chain network\n       main methods: can refund if any transaction has failed, specifics on payments defined by config contract [** to be constructed]\n    */\n\n    /*\n        constants\n    */\n    int maxCapacityPerTransit = 10;\n\n    /*\n        this should be retrieved by the config API / contract\n    */\n    int riskDistribution = 0;\n\n    /*\n        data structures\n    */\n    SupplyChainTransactions private _globalTransactions;\n\n    struct Transit {\n        string name;\n        uint status;    // 0 is progress and 1 is failed\n        int transactionID;\n        address sender;\n        address receiver;\n    }\n    \n    uint256[] pendingTransactions;\n    /*\n        TODO:\n        populate this pendingtransactions array with the transactions that need to processed\n        In this case transactions that need to be transported from A (farmer) to B (Manufacturer) address.\n    */\n\n    constructor(int maxCapacityPerTransit, address supplyChainTransactionsAddress) public {\n        maxCapacityPerTransit = maxCapacityPerTransit;\n        _globalTransactions = SupplyChainTransactions(supplyChainTransactionsAddress);\n        _globalTransactions.addTransactionCreator(this);\n        _globalTransactions.addSupplyChainParty(this, 0);\n        _globalTransactions.addNode(this);\n    }\n\n    function () external payable {}\n\n    Transit[] transits;\n\n    function addTransit(string name, int transactionID, address sender, address receiver) public returns (uint256) {\n        /*\n            update array of transits or any other datastructres;\n        */\n        Transit memory t = Transit(name, 0, transactionID, sender, receiver); // status initialized to 0 = in progress by default\n        transits.push(t);\n        return 0;\n    }\n\n    function checkTransitStatus(uint256 transitID) public view returns (int) {\n        /*\n            use data structure to lookup transit status quickly\n        */\n        if (transitID < 0 || transitID > transits.length - 1) {\n            return -1;\n        }\n        return int(transits[transitID].status);\n    }\n    \n    function getPendingTransaction() public view returns (int) {\n        /*\n            return the top pending transaction that this Carrier neds to processed\n            pendingTransaction[-1]\n        */\n        return 0;\n    }\n\n    function updateTransitStatus(uint256 transitID, uint status) public returns (bool) {\n        /*\n            use data structures to update the state of transitID denoting that the ship has failed to deliver the products\n            status = ENUM {0: in_progress, 1: failed, 2: completed}\n            someone updates with status = 1 failed, call internal method to make necessary actions or updates\n        */\n\n        if (transitID < 0 || transitID > transits.length - 1) {\n            return false;\n        }\n        if (transits[transitID].status == 1) {   \n            return false;\n        }\n        transits[transitID].status = status;\n        \n        if (status == 1) {\n            refundTransitValue(transitID);\n        }\n        else if (status == 2) {  // if completed, update owner \n            _globalTransactions.updateTransactionOwner(transits[transitID].receiver, uint256(transits[transitID].transactionID));\n        }    \n        return true;\n    }\n\n    function refundTransitValue(uint256 transitID) payable returns(bool) {\n        /*\n        transitID has failed\n        send transactionID value equally accross the sender and the receiver\n        this involves actually sending the ether\n        this method should be **payable**\n        */\n\n        if (transitID < 0 || transitID > transits.length - 1) {\n            return false;\n        }\n        address sender = transits[transitID].sender;\n        address receiver = transits[transitID].receiver;\n        uint256 transactionID = uint256(transits[transitID].transactionID);\n\n        int beanQuantity = int(_globalTransactions.getTransactionQuantity(transactionID));\n        uint256 saleValueInWei = uint256(beanQuantity);\n\n        if (address(this).balance < saleValueInWei) {\n            return false;\n        }\n        sender.transfer(saleValueInWei / 2);\n        receiver.transfer(saleValueInWei / 2);\n        return true;\n    }\n}\n\ncontract CocoaBeanFarmer is SupplyChainNode {\n\n    int quantity = 0; // total beans this farmer has \n    uint256[] pendingTransactions;  \n    SupplyChainTransactions private _globalTransactions;\n\n    constructor(int initialQuantity, address supplyChainTransactionsAddress) public {\n        quantity = initialQuantity;\n        _globalTransactions = SupplyChainTransactions(supplyChainTransactionsAddress);\n        _globalTransactions.addTransactionCreator(this);\n        _globalTransactions.addSupplyChainParty(this, 0);\n        _globalTransactions.addNode(this);\n    }\n\n    function beanBalance() external view returns (int) {\n        return quantity;\n    }\n\n    function claimBeans(int num_beans) {\n        quantity = quantity + num_beans;\n    }\n    \n    function () external payable {}\n    \n    function etherBalance() public view returns (uint256) {\n        return address(this).balance;\n    }\n    \n    \n    event NewBeanTransaction(\n        uint indexed _id,\n        string _name,\n        string _description,\n        uint _quantityToSend\n    );\n    \n    function createBeanTransaction(\n        string name, string description, uint256 quantityToSend\n    ) external returns (bool) {\n        if (int(quantityToSend) >= quantity) {\n            return false;\n        }\n        uint256 transactionID = _globalTransactions.addTransaction(\n            name, description, quantityToSend\n        );\n        pendingTransactions.push(transactionID);\n        _globalTransactions.setTransactionPremature(transactionID);\n        quantity = quantity - int(quantityToSend);\n        \n        /**\n         * @dev \n         * \n         * Emits a new transaction to be logged on the next block. \n         * That log will contain the newly created transaction's info which\n         * we can listen to on the front-end. We'll use a websocket connection\n         * to update the front-end in real-time, according to the data in the\n         * emitted event.\n         */\n        emit NewBeanTransaction(transactionID, name, description, quantityToSend);\n        \n        return true;\n    }\n    \n    function isTransactionAccepted(uint256 transactionID) returns (bool) {\n        return _globalTransactions.isTransactionAccepted(transactionID);\n    }\n    \n    function isTransactionRejected(uint256 transactionID) returns (bool) {\n        return _globalTransactions.isTransactionRejected(transactionID);\n    }\n    \n    function getTransactionRejectedMsg(uint256 transactionID) returns (string) {\n        require(_globalTransactions.isTransactionRejected(transactionID));\n        return _globalTransactions.getTransactionRejectedMsg(transactionID);\n    }\n    \n    function reclaimRejectedBeans(uint256 transactionID) { \n        // separate method in case the farmer no longer wants the beans\n        require(_globalTransactions.isTransactionRejected(transactionID));\n        quantity = quantity + int256(_globalTransactions.getTransactionQuantity(transactionID));\n    }\n    \n    function sendBeanTransaction(uint256 transactionID, address recipient) {\n        _globalTransactions.addRecipient(transactionID, recipient);\n    }\n}\n\ncontract Manufacturer is SupplyChainNode {\n    int beanCount = 0; // num_beans this Manufacturer has \n    SupplyChainTransactions private _globalTransactions;\n    uint256[] pendingTransactions;\n    /*\n        TODO\n        add pending transactions array\n        whenever this Manufacturer has ownership or must do something with a transaction it should be added to this array\n        ideally this array should include \"transactions to accept\"\n    */\n    int beanValueInWei = 1;      // a bean is worth this many ether\n    int beansToCoffeeRatio = 50; // need 50 beans to produce 1 coffee \n\n    constructor(int initialBeanCount, int estimatedBeansToCoffeeRatio, int estimatedBeanValueInWei, address supplyChainTransactionsAddress) {\n        beanCount = initialBeanCount;\n        beansToCoffeeRatio = estimatedBeansToCoffeeRatio;\n        beanValueInWei = estimatedBeanValueInWei;\n        _globalTransactions = SupplyChainTransactions(supplyChainTransactionsAddress);\n        _globalTransactions.addSupplyChainParty(this, 1);\n        _globalTransactions.addNode(this);\n    }\n    \n    function () external payable {}\n    function getArray() public view returns (uint256[]) {\n        return pendingTransactions;\n    }\n    function getBalanceEther() public view returns (uint256) {\n        return address(this).balance;\n    }\n    \n    function capacity() internal returns (int) {\n        return int(beanCount/beansToCoffeeRatio);\n    }\n    \n    function getTotalBeanCapacity() external view returns (int) {\n        return capacity();\n    }\n    \n    function getPendingTransaction() external returns (uint256 transactionID) {\n        return pendingTransactions[pendingTransactions.length - 1];\n    }\n    \n    function addTransaction(uint256 transactionID) external returns (bool) {\n        pendingTransactions.push(transactionID);\n        return true;\n    }\n    \n    function requestBeans(address _to, int quantity) external view returns (bool) {\n        return false;\n    }\n\n    function produce(int quantity) external view returns (bool) {\n        int cap = capacity();\n        require(cap > quantity);\n        beanCount = beanCount - (quantity * beansToCoffeeRatio);\n    }\n    \n    function acceptBeans(uint256 transactionID) public payable returns (bool) { \n        // require(transactionToActionId[transactionID] == 0);\n        \n        int beanQuantity = int(_globalTransactions.getTransactionQuantity(transactionID));\n        uint256 saleValueInWei = uint256(beanQuantity * beanValueInWei);\n        \n        if (address(this).balance < saleValueInWei) { // doesnt enough etherBalance\n            _globalTransactions.rejectTransaction(transactionID, \"Not enough beans\");\n            return false;\n        }\n        \n        _globalTransactions.acceptTransaction(transactionID);\n        // address owner = _globalTransactions.getTransactionOwner(transactionID);\n        address(_globalTransactions.getTransactionOwner(transactionID)).transfer(saleValueInWei);\n        return true;\n    }\n    \n    function rejectBeans(uint256 transactionID, string description) public payable returns (bool) {\n        // require(transactionToActionId[transactionID] == 1);\n        _globalTransactions.rejectTransaction(transactionID, description);\n        address owner = _globalTransactions.getTransactionOwner(transactionID);\n        CocoaBeanFarmer farmer = CocoaBeanFarmer(owner);\n        // farmer.claimBeans(int256(_globalTransactions.getTransactionQuantity(transactionID)));\n        // CocoaBeanFarmer(owner).claimBeans(int256(_globalTransactions.getTransactionQuantity(transactionID)));\n        return true;\n    }\n}\n\n\ncontract SupplyChainTransactions {\n\n    struct Status {\n        bool accepted; // the requesting party is in compliance with transaction attributes\n        bool verified; // the verifiable party has verified the product\n        bool premature; // the responsible party has declared the existence of the product\n        bool rejected; // was rejected by Manufacturer\n    }\n    \n    struct Transaction {\n        string name;\n        string description;\n        string rejectedMsg;\n        uint256 quantity;\n        Status status;\n        address currentOwner;\n        address recipient;\n    }\n    \n    SupplyChainNode[] nodes;\n    \n    mapping (uint256 => address) public transactionToOwner; \n    mapping (address => uint256) public addressToSupplyChainNode;\n    mapping (address => bool) private authorizedTransactionCreators;\n    mapping (address => int) private partyToStage;\n\n    Transaction[] transactions;\n\n    function addTransaction(string name, string description, uint256 quantity) external returns (uint256 transactionID) {\n        Status memory status = Status({\n            accepted: false,\n            rejected: false,\n            verified: false,\n            premature: true\n        });\n\n        require(authorizedTransactionCreators[msg.sender]);\n\n        Transaction memory transaction = Transaction({\n            name: name,\n            description: description,\n            quantity: quantity,\n            status: status,\n            rejectedMsg: \"\",\n            currentOwner: msg.sender,\n            recipient: msg.sender\n        });\n        \n        transactionToOwner[transactionID] = msg.sender;\n\n        // log0(bytes32(transactions.length));\n        transactionID = transactions.push(transaction) - 1;\n    }\n    \n    function acceptTransaction(uint256 transactionID) {\n        Transaction transaction = transactions[transactionID];\n        transaction.status.accepted = true;\n    }\n    \n    function rejectTransaction(uint256 transactionID, string description) {\n        transactions[transactionID].status.rejected = true;\n        transactions[transactionID].rejectedMsg = description;\n    }\n    \n    function updateTransactionOwner(address ManufacturerAddress, uint256 transactionID) {\n        Manufacturer(ManufacturerAddress).addTransaction(transactionID);\n    }\n    \n    function setTransactionPremature(uint256 transactionID) {\n        transactions[transactionID].status.premature = true;\n    }\n\n    function verifyTransaction(uint256 transactionID) {\n        int verifierStage = partyToStage[msg.sender];\n        Transaction transaction = transactions[transactionID];\n        require(verifierStage == partyToStage[transaction.currentOwner] - 1);\n        transaction.status.verified = true;\n    }\n\n    function addRecipient(uint256 transactionID, address recipient) {\n        transactions[transactionID].recipient = recipient;\n        nodes[addressToSupplyChainNode[recipient]].addPendingTransaction(transactionID, 0);\n    }\n\n    function transferTransactionOwnership(uint256 transactionID) {\n        transactions[transactionID].currentOwner = msg.sender;\n        transactionToOwner[transactionID] = msg.sender;\n    }\n\n    function getTransactionOwner(uint256 transactionID) returns (address) {\n        return transactionToOwner[transactionID];\n    }\n    \n    function getTransactionQuantity(uint256 transactionID) returns (uint256) {\n        return transactions[transactionID].quantity;\n    }\n\n    function addTransactionCreator(address _address) public view {\n        authorizedTransactionCreators[_address] = true;\n    }\n\n    function addSupplyChainParty(address _address, int stage) public view {\n        partyToStage[_address] = stage;\n    }\n\n    function isTransactionVerified(uint256 transactionID) returns (bool) {\n        return transactions[transactionID].status.verified;\n    }\n\n    function isTransactionAccepted(uint256 transactionID) returns (bool) {\n        return transactions[transactionID].status.accepted;\n    }\n    \n    function isTransactionRejected(uint256 transactionID) returns (bool) {\n        return transactions[transactionID].status.rejected;\n    }\n    \n    function getTransactionRejectedMsg(uint256 transactionID) returns (string) {\n        return transactions[transactionID].rejectedMsg;\n    }\n    \n    function getTransactionName(uint256 transactionID) returns (string) {\n        return transactions[transactionID].name;\n    }\n    \n    function addNode(address nodeAddress) {\n        SupplyChainNode _instance = SupplyChainNode(nodeAddress);\n        uint256 index = nodes.push(_instance) - 1;\n        addressToSupplyChainNode[nodeAddress] = index;\n    }\n\n}",
  "sourcePath": "/Users/platocrat/Documents/GitHub/supply_chain_simulator/contracts/supplyChain.sol",
  "compiler": {
    "name": "solc",
    "version": "0.4.26+commit.4563c3fc.Emscripten.clang"
  },
  "schemaVersion": "3.3.1",
  "updatedAt": "2020-12-13T21:50:32.333Z",
  "devdoc": {
    "methods": {}
  },
  "userdoc": {
    "methods": {}
  }
}