{
  "contractName": "manufacturer",
  "abi": [
    {
      "constant": false,
      "inputs": [],
      "name": "getTopPendingAction",
      "outputs": [
        {
          "name": "",
          "type": "int256"
        }
      ],
      "payable": false,
      "stateMutability": "nonpayable",
      "type": "function"
    },
    {
      "constant": false,
      "inputs": [
        {
          "name": "transactionID",
          "type": "uint256"
        },
        {
          "name": "action",
          "type": "int256"
        }
      ],
      "name": "addPendingTransaction",
      "outputs": [],
      "payable": false,
      "stateMutability": "nonpayable",
      "type": "function"
    },
    {
      "inputs": [
        {
          "name": "initialBeanCount",
          "type": "int256"
        },
        {
          "name": "estimatedBeansToCoffeeRatio",
          "type": "int256"
        },
        {
          "name": "estimatedBeanValueInWei",
          "type": "int256"
        },
        {
          "name": "transactionAddress",
          "type": "address"
        }
      ],
      "payable": false,
      "stateMutability": "nonpayable",
      "type": "constructor"
    },
    {
      "payable": true,
      "stateMutability": "payable",
      "type": "fallback"
    },
    {
      "constant": true,
      "inputs": [],
      "name": "getBalanceEther",
      "outputs": [
        {
          "name": "",
          "type": "uint256"
        }
      ],
      "payable": false,
      "stateMutability": "view",
      "type": "function"
    },
    {
      "constant": true,
      "inputs": [],
      "name": "getTotalCapacity",
      "outputs": [
        {
          "name": "",
          "type": "int256"
        }
      ],
      "payable": false,
      "stateMutability": "view",
      "type": "function"
    },
    {
      "constant": true,
      "inputs": [
        {
          "name": "_to",
          "type": "address"
        },
        {
          "name": "quantity",
          "type": "int256"
        }
      ],
      "name": "requestBeans",
      "outputs": [
        {
          "name": "",
          "type": "bool"
        }
      ],
      "payable": false,
      "stateMutability": "view",
      "type": "function"
    },
    {
      "constant": true,
      "inputs": [
        {
          "name": "quantity",
          "type": "int256"
        }
      ],
      "name": "produce",
      "outputs": [
        {
          "name": "",
          "type": "bool"
        }
      ],
      "payable": false,
      "stateMutability": "view",
      "type": "function"
    },
    {
      "constant": false,
      "inputs": [
        {
          "name": "transactionID",
          "type": "uint256"
        }
      ],
      "name": "acceptBeans",
      "outputs": [
        {
          "name": "",
          "type": "bool"
        }
      ],
      "payable": true,
      "stateMutability": "payable",
      "type": "function"
    },
    {
      "constant": false,
      "inputs": [
        {
          "name": "transactionID",
          "type": "uint256"
        },
        {
          "name": "description",
          "type": "string"
        }
      ],
      "name": "rejectBeans",
      "outputs": [
        {
          "name": "",
          "type": "bool"
        }
      ],
      "payable": true,
      "stateMutability": "payable",
      "type": "function"
    }
  ],
  "bytecode": "0x6080604052600060025560006003556001600555603260065534801561002457600080fd5b50604051608080610bf58339810180604052810190808051906020019092919080519060200190929190805190602001909291908051906020019092919050505083600381905550826006819055508160058190555080600460006101000a81548173ffffffffffffffffffffffffffffffffffffffff021916908373ffffffffffffffffffffffffffffffffffffffff160217905550600460009054906101000a900473ffffffffffffffffffffffffffffffffffffffff1673ffffffffffffffffffffffffffffffffffffffff16634da8caa13060016040518363ffffffff167c0100000000000000000000000000000000000000000000000000000000028152600401808373ffffffffffffffffffffffffffffffffffffffff1673ffffffffffffffffffffffffffffffffffffffff16815260200182815260200192505050600060405180830381600087803b15801561018157600080fd5b505af1158015610195573d6000803e3d6000fd5b50505050600460009054906101000a900473ffffffffffffffffffffffffffffffffffffffff1673ffffffffffffffffffffffffffffffffffffffff16639d95f1cc306040518263ffffffff167c0100000000000000000000000000000000000000000000000000000000028152600401808273ffffffffffffffffffffffffffffffffffffffff1673ffffffffffffffffffffffffffffffffffffffff168152602001915050600060405180830381600087803b15801561025657600080fd5b505af115801561026a573d6000803e3d6000fd5b5050505050505050610974806102816000396000f30060806040526004361061008e576000357c0100000000000000000000000000000000000000000000000000000000900463ffffffff16806328c68e7c14610090578063442c18f3146100bb5780635a73f1dc146100e657806373b4aed614610164578063896da4eb1461019c578063b8b8cb75146101d3578063cf21100714610238578063d8a409531461027d575b005b34801561009c57600080fd5b506100a56102a8565b6040518082815260200191505060405180910390f35b3480156100c757600080fd5b506100d06102dd565b6040518082815260200191505060405180910390f35b61014a60048036038101908080359060200190929190803590602001908201803590602001908080601f01602080910402602001604051908101604052809392919081815260200183838082843782019150505050505091929192905050506102ec565b604051808215151515815260200191505060405180910390f35b610182600480360381019080803590602001909291905050506104e4565b604051808215151515815260200191505060405180910390f35b3480156101a857600080fd5b506101d1600480360381019080803590602001909291908035906020019092919050505061088f565b005b3480156101df57600080fd5b5061021e600480360381019080803573ffffffffffffffffffffffffffffffffffffffff169060200190929190803590602001909291905050506108d7565b604051808215151515815260200191505060405180910390f35b34801561024457600080fd5b50610263600480360381019080803590602001909291905050506108e2565b604051808215151515815260200191505060405180910390f35b34801561028957600080fd5b50610292610912565b6040518082815260200191505060405180910390f35b600060016000806002548154811015156102be57fe5b9060005260206000200154815260200190815260200160002054905090565b60006102e7610931565b905090565b6000806000600460009054906101000a900473ffffffffffffffffffffffffffffffffffffffff1673ffffffffffffffffffffffffffffffffffffffff1663dffa64f886866040518363ffffffff167c01000000000000000000000000000000000000000000000000000000000281526004018083815260200180602001828103825283818151815260200191508051906020019080838360005b838110156103a2578082015181840152602081019050610387565b50505050905090810190601f1680156103cf5780820380516001836020036101000a031916815260200191505b509350505050600060405180830381600087803b1580156103ef57600080fd5b505af1158015610403573d6000803e3d6000fd5b50505050600460009054906101000a900473ffffffffffffffffffffffffffffffffffffffff1673ffffffffffffffffffffffffffffffffffffffff1663babe016a866040518263ffffffff167c010000000000000000000000000000000000000000000000000000000002815260040180828152602001915050602060405180830381600087803b15801561049857600080fd5b505af11580156104ac573d6000803e3d6000fd5b505050506040513d60208110156104c257600080fd5b8101908080519060200190929190505050915081905060019250505092915050565b6000806000600460009054906101000a900473ffffffffffffffffffffffffffffffffffffffff1673ffffffffffffffffffffffffffffffffffffffff1663f31ca13c856040518263ffffffff167c010000000000000000000000000000000000000000000000000000000002815260040180828152602001915050602060405180830381600087803b15801561057a57600080fd5b505af115801561058e573d6000803e3d6000fd5b505050506040513d60208110156105a457600080fd5b8101908080519060200190929190505050915060055482029050803073ffffffffffffffffffffffffffffffffffffffff163110156106c857600460009054906101000a900473ffffffffffffffffffffffffffffffffffffffff1673ffffffffffffffffffffffffffffffffffffffff1663dffa64f8856040518263ffffffff167c01000000000000000000000000000000000000000000000000000000000281526004018082815260200180602001828103825260108152602001807f4e6f7420656e6f756768206265616e730000000000000000000000000000000081525060200192505050600060405180830381600087803b1580156106a757600080fd5b505af11580156106bb573d6000803e3d6000fd5b5050505060009250610888565b600460009054906101000a900473ffffffffffffffffffffffffffffffffffffffff1673ffffffffffffffffffffffffffffffffffffffff1663a9dd6895856040518263ffffffff167c010000000000000000000000000000000000000000000000000000000002815260040180828152602001915050600060405180830381600087803b15801561075957600080fd5b505af115801561076d573d6000803e3d6000fd5b50505050600460009054906101000a900473ffffffffffffffffffffffffffffffffffffffff1673ffffffffffffffffffffffffffffffffffffffff1663babe016a856040518263ffffffff167c010000000000000000000000000000000000000000000000000000000002815260040180828152602001915050602060405180830381600087803b15801561080257600080fd5b505af1158015610816573d6000803e3d6000fd5b505050506040513d602081101561082c57600080fd5b810190808051906020019092919050505073ffffffffffffffffffffffffffffffffffffffff166108fc829081150290604051600060405180830381858888f19350505050158015610882573d6000803e3d6000fd5b50600192505b5050919050565b60008290806001815401808255809150509060018203906000526020600020016000909192909190915055508060016000848152602001908152602001600020819055505050565b600080905092915050565b6000806108ed610931565b905082811315156108fd57600080fd5b60065483026003540360038190555050919050565b60003073ffffffffffffffffffffffffffffffffffffffff1631905090565b600060065460035481151561094257fe5b059050905600a165627a7a7230582064a16e9e148dcd05d1762ded153cbaa201b7aad2553e0d3a41370417883d60a60029",
  "source": "pragma solidity ^0.4.26;\n\ncontract supplyChainNode {\n    \n    uint256[] pendingTransactions;\n    mapping(uint256 => int) transactionToActionId;\n    uint256 index = 0;\n    \n    function addPendingTransaction(uint256 transactionID, int action) {\n        pendingTransactions.push(transactionID);\n        transactionToActionId[transactionID] = action;\n    }\n        \n    function getTopPendingAction() returns (int) {\n        return transactionToActionId[pendingTransactions[index]];\n    }\n    \n    function _removeTopPendingAction() private {\n        index = index + 1;\n    }\n    \n}\n\ncontract cocoBeanFarmer is supplyChainNode {\n\n    int quantity = 0; // total beans this farmer has \n    uint256[] pendingTransactions;  \n    SupplyChainTransactions private _globalTransactions;\n\n    constructor(int initial_quantity, address transactionAddress) public {\n        quantity = initial_quantity;\n        _globalTransactions = SupplyChainTransactions(transactionAddress);\n        _globalTransactions.addTransactionCreator(this);\n        _globalTransactions.addSupplyChainParty(this, 0);\n        _globalTransactions.addNode(this);\n    }\n\n    function beanBalance() external view returns (int) {\n        return quantity;\n    }\n\n    function claimBeans(int num_beans) {\n        quantity = quantity + num_beans;\n    }\n    \n    function () external payable {}\n    \n    function etherBalance() public view returns (uint256) {\n        return address(this).balance;\n    }\n    \n    function createBeanTransaction(string name, string description, uint256 quantityToSend) external returns (bool) {\n        if (int(quantityToSend) >= quantity) {\n            return false;\n        }\n        uint256 transactionID = _globalTransactions.addTransaction(name, description, quantityToSend);\n        pendingTransactions.push(transactionID);\n        _globalTransactions.setTransactionPremature(transactionID);\n        quantity = quantity - int(quantityToSend);\n        return true;\n    }\n    \n    function isTransactionAccepted(uint256 transactionID) returns (bool) {\n        return _globalTransactions.isTransactionAccepted(transactionID);\n    }\n    \n    function isTransactionRejected(uint256 transactionID) returns (bool) {\n        return _globalTransactions.isTransactionRejected(transactionID);\n    }\n    \n    function getTransactionRejectedMsg(uint256 transactionID) returns (string) {\n        require(_globalTransactions.isTransactionRejected(transactionID));\n        return _globalTransactions.getTransactionRejectedMsg(transactionID);\n    }\n    \n    function reclaimRejectedBeans(uint256 transactionID) { \n        // separate method in case the farmer no longer wants the beans\n        require(_globalTransactions.isTransactionRejected(transactionID));\n        quantity = quantity + int256(_globalTransactions.getTransactionQuantity(transactionID));\n    }\n    \n    function sendBeanTransaction(uint256 transactionID, address recipient) {\n        _globalTransactions.addRecipient(transactionID, recipient);\n    }\n}\n\ncontract manufacturer is supplyChainNode {\n    int beanCount = 0; // num_beans this manufacturer has \n    SupplyChainTransactions private _globalTransactions;\n    \n    int beanValueInWei = 1;      // a bean is worth this many ether\n    int beansToCoffeeRatio = 50; // need 50 beans to produce 1 coffee \n    \n    constructor(int initialBeanCount, int estimatedBeansToCoffeeRatio, int estimatedBeanValueInWei, address transactionAddress) {\n        beanCount = initialBeanCount;\n        beansToCoffeeRatio = estimatedBeansToCoffeeRatio;\n        beanValueInWei = estimatedBeanValueInWei;\n        _globalTransactions = SupplyChainTransactions(transactionAddress);\n        _globalTransactions.addSupplyChainParty(this, 1);\n        _globalTransactions.addNode(this);\n    }\n    \n    function () external payable {}\n    \n    function getBalanceEther() public view returns (uint256) {\n        return address(this).balance;\n    }\n    \n    function capacity() internal returns (int) {\n        return int(beanCount/beansToCoffeeRatio);\n    }\n    \n    function getTotalCapacity() external view returns (int) {\n        return capacity();\n    }\n    \n    function requestBeans(address _to, int quantity) external view returns (bool) {\n        return false;\n    }\n\n    function produce(int quantity) external view returns (bool) {\n        int cap = capacity();\n        require(cap > quantity);\n        beanCount = beanCount - (quantity * beansToCoffeeRatio);\n    }\n    \n    function acceptBeans(uint256 transactionID) public payable returns (bool) { \n        // require(transactionToActionId[transactionID] == 0);\n        \n        int beanQuantity = int(_globalTransactions.getTransactionQuantity(transactionID));\n        uint256 saleValueInWei = uint256(beanQuantity * beanValueInWei);\n        \n        if (address(this).balance < saleValueInWei) { // doesnt enough etherBalance\n            _globalTransactions.rejectTransaction(transactionID, \"Not enough beans\");\n            return false;\n        }\n        \n        _globalTransactions.acceptTransaction(transactionID);\n        // address owner = _globalTransactions.getTransactionOwner(transactionID);\n        address(_globalTransactions.getTransactionOwner(transactionID)).transfer(saleValueInWei);\n        return true;\n    }\n    \n    function rejectBeans(uint256 transactionID, string description) public payable returns (bool) {\n        // require(transactionToActionId[transactionID] == 1);\n        _globalTransactions.rejectTransaction(transactionID, description);\n        address owner = _globalTransactions.getTransactionOwner(transactionID);\n        cocoBeanFarmer farmer = cocoBeanFarmer(owner);\n        // farmer.claimBeans(int256(_globalTransactions.getTransactionQuantity(transactionID)));\n        // cocoBeanFarmer(owner).claimBeans(int256(_globalTransactions.getTransactionQuantity(transactionID)));\n        return true;\n    }\n}\n\n\ncontract SupplyChainTransactions {\n\n    struct Status {\n        bool accepted; // the requesting party is in compliance with transaction attributes\n        bool verified; // the verifiable party has verified the product\n        bool premature; // the responsible party has declared the existence of the product\n        bool rejected; // was rejected by manufacturer\n    }\n    \n    struct Transaction {\n        string name;\n        string description;\n        string rejectedMsg;\n        uint256 quantity;\n        Status status;\n        address currentOwner;\n        address recipient;\n    }\n    \n    supplyChainNode[] nodes;\n    \n    mapping (uint256 => address) public transactionToOwner; \n    mapping (address => uint256) public addressToSupplyChainNode;\n    mapping (address => bool) private authorizedTransactionCreators;\n    mapping (address => int) private partyToStage;\n\n    Transaction[] transactions;\n\n    function addTransaction(string name, string description, uint256 quantity) external returns (uint256 transactionID) {\n        Status memory status = Status({\n            accepted: false,\n            rejected: false,\n            verified: false,\n            premature: true\n        });\n\n        require(authorizedTransactionCreators[msg.sender]);\n\n        Transaction memory transaction = Transaction({\n            name: name,\n            description: description,\n            quantity: quantity,\n            status: status,\n            rejectedMsg: \"\",\n            currentOwner: msg.sender,\n            recipient: msg.sender\n        });\n        \n        transactionToOwner[transactionID] = msg.sender;\n\n        // log0(bytes32(transactions.length));\n        transactionID = transactions.push(transaction) - 1;\n    }\n    \n    function acceptTransaction(uint256 transactionID) {\n        Transaction transaction = transactions[transactionID];\n        transaction.status.accepted = true;\n    }\n    \n    function rejectTransaction(uint256 transactionID, string description) {\n        transactions[transactionID].status.rejected = true;\n        transactions[transactionID].rejectedMsg = description;\n    }\n    \n    function setTransactionPremature(uint256 transactionID) {\n        transactions[transactionID].status.premature = true;\n    }\n\n    function verifyTransaction(uint256 transactionID) {\n        int verifierStage = partyToStage[msg.sender];\n        Transaction transaction = transactions[transactionID];\n        require(verifierStage == partyToStage[transaction.currentOwner] - 1);\n        transaction.status.verified = true;\n    }\n\n    function addRecipient(uint256 transactionID, address recipient) {\n        transactions[transactionID].recipient = recipient;\n        nodes[addressToSupplyChainNode[recipient]].addPendingTransaction(transactionID, 0);\n    }\n\n    function transferTransactionOwnership(uint256 transactionID) {\n        transactions[transactionID].currentOwner = msg.sender;\n        transactionToOwner[transactionID] = msg.sender;\n    }\n\n    function getTransactionOwner(uint256 transactionID) returns (address) {\n        return transactionToOwner[transactionID];\n    }\n    \n    function getTransactionQuantity(uint256 transactionID) returns (uint256) {\n        return transactions[transactionID].quantity;\n    }\n\n    function addTransactionCreator(address _address) public view {\n        authorizedTransactionCreators[_address] = true;\n    }\n\n    function addSupplyChainParty(address _address, int stage) public view {\n        partyToStage[_address] = stage;\n    }\n\n    function isTransactionVerified(uint256 transactionID) returns (bool) {\n        return transactions[transactionID].status.verified;\n    }\n\n    function isTransactionAccepted(uint256 transactionID) returns (bool) {\n        return transactions[transactionID].status.accepted;\n    }\n    \n    function isTransactionRejected(uint256 transactionID) returns (bool) {\n        return transactions[transactionID].status.rejected;\n    }\n    \n    function getTransactionRejectedMsg(uint256 transactionID) returns (string) {\n        return transactions[transactionID].rejectedMsg;\n    }\n    \n    function getTransactionName(uint256 transactionID) returns (string) {\n        return transactions[transactionID].name;\n    }\n    \n    function addNode(address nodeAddress) {\n        supplyChainNode _instance = supplyChainNode(nodeAddress);\n        uint256 index = nodes.push(_instance) - 1;\n        addressToSupplyChainNode[nodeAddress] = index;\n    }\n\n}\n",
  "sourcePath": "/Users/platocrat/Documents/GitHub/supply_chain_simulator/contracts/supplyChain.sol",
  "compiler": {
    "name": "solc",
    "version": "0.4.26+commit.4563c3fc.Emscripten.clang"
  },
  "schemaVersion": "3.3.1",
  "updatedAt": "2020-10-27T22:11:48.061Z",
  "devdoc": {
    "methods": {}
  },
  "userdoc": {
    "methods": {}
  }
}