{
  "contractName": "SupplyChainTransactions",
  "abi": [
    {
      "constant": true,
      "inputs": [
        {
          "name": "",
          "type": "address"
        }
      ],
      "name": "addressToSupplyChainNode",
      "outputs": [
        {
          "name": "",
          "type": "uint256"
        }
      ],
      "payable": false,
      "stateMutability": "view",
      "type": "function"
    },
    {
      "constant": true,
      "inputs": [
        {
          "name": "",
          "type": "uint256"
        }
      ],
      "name": "transactionToOwner",
      "outputs": [
        {
          "name": "",
          "type": "address"
        }
      ],
      "payable": false,
      "stateMutability": "view",
      "type": "function"
    },
    {
      "constant": false,
      "inputs": [
        {
          "name": "name",
          "type": "string"
        },
        {
          "name": "description",
          "type": "string"
        },
        {
          "name": "quantity",
          "type": "uint256"
        }
      ],
      "name": "addTransaction",
      "outputs": [
        {
          "name": "transactionID",
          "type": "uint256"
        }
      ],
      "payable": false,
      "stateMutability": "nonpayable",
      "type": "function"
    },
    {
      "constant": false,
      "inputs": [
        {
          "name": "transactionID",
          "type": "uint256"
        }
      ],
      "name": "acceptTransaction",
      "outputs": [],
      "payable": false,
      "stateMutability": "nonpayable",
      "type": "function"
    },
    {
      "constant": false,
      "inputs": [
        {
          "name": "transactionID",
          "type": "uint256"
        },
        {
          "name": "description",
          "type": "string"
        }
      ],
      "name": "rejectTransaction",
      "outputs": [],
      "payable": false,
      "stateMutability": "nonpayable",
      "type": "function"
    },
    {
      "constant": false,
      "inputs": [
        {
          "name": "ManufacturerAddress",
          "type": "address"
        },
        {
          "name": "transactionID",
          "type": "uint256"
        }
      ],
      "name": "updateTransactionOwner",
      "outputs": [],
      "payable": false,
      "stateMutability": "nonpayable",
      "type": "function"
    },
    {
      "constant": false,
      "inputs": [
        {
          "name": "transactionID",
          "type": "uint256"
        }
      ],
      "name": "setTransactionPremature",
      "outputs": [],
      "payable": false,
      "stateMutability": "nonpayable",
      "type": "function"
    },
    {
      "constant": false,
      "inputs": [
        {
          "name": "transactionID",
          "type": "uint256"
        }
      ],
      "name": "verifyTransaction",
      "outputs": [],
      "payable": false,
      "stateMutability": "nonpayable",
      "type": "function"
    },
    {
      "constant": false,
      "inputs": [
        {
          "name": "transactionID",
          "type": "uint256"
        },
        {
          "name": "recipient",
          "type": "address"
        }
      ],
      "name": "addRecipient",
      "outputs": [],
      "payable": false,
      "stateMutability": "nonpayable",
      "type": "function"
    },
    {
      "constant": false,
      "inputs": [
        {
          "name": "transactionID",
          "type": "uint256"
        }
      ],
      "name": "transferTransactionOwnership",
      "outputs": [],
      "payable": false,
      "stateMutability": "nonpayable",
      "type": "function"
    },
    {
      "constant": false,
      "inputs": [
        {
          "name": "transactionID",
          "type": "uint256"
        }
      ],
      "name": "getTransactionOwner",
      "outputs": [
        {
          "name": "",
          "type": "address"
        }
      ],
      "payable": false,
      "stateMutability": "nonpayable",
      "type": "function"
    },
    {
      "constant": false,
      "inputs": [
        {
          "name": "transactionID",
          "type": "uint256"
        }
      ],
      "name": "getTransactionQuantity",
      "outputs": [
        {
          "name": "",
          "type": "uint256"
        }
      ],
      "payable": false,
      "stateMutability": "nonpayable",
      "type": "function"
    },
    {
      "constant": true,
      "inputs": [
        {
          "name": "_address",
          "type": "address"
        }
      ],
      "name": "addTransactionCreator",
      "outputs": [],
      "payable": false,
      "stateMutability": "view",
      "type": "function"
    },
    {
      "constant": true,
      "inputs": [
        {
          "name": "_address",
          "type": "address"
        },
        {
          "name": "stage",
          "type": "int256"
        }
      ],
      "name": "addSupplyChainParty",
      "outputs": [],
      "payable": false,
      "stateMutability": "view",
      "type": "function"
    },
    {
      "constant": false,
      "inputs": [
        {
          "name": "transactionID",
          "type": "uint256"
        }
      ],
      "name": "isTransactionVerified",
      "outputs": [
        {
          "name": "",
          "type": "bool"
        }
      ],
      "payable": false,
      "stateMutability": "nonpayable",
      "type": "function"
    },
    {
      "constant": false,
      "inputs": [
        {
          "name": "transactionID",
          "type": "uint256"
        }
      ],
      "name": "isTransactionAccepted",
      "outputs": [
        {
          "name": "",
          "type": "bool"
        }
      ],
      "payable": false,
      "stateMutability": "nonpayable",
      "type": "function"
    },
    {
      "constant": false,
      "inputs": [
        {
          "name": "transactionID",
          "type": "uint256"
        }
      ],
      "name": "isTransactionRejected",
      "outputs": [
        {
          "name": "",
          "type": "bool"
        }
      ],
      "payable": false,
      "stateMutability": "nonpayable",
      "type": "function"
    },
    {
      "constant": false,
      "inputs": [
        {
          "name": "transactionID",
          "type": "uint256"
        }
      ],
      "name": "getTransactionRejectedMsg",
      "outputs": [
        {
          "name": "",
          "type": "string"
        }
      ],
      "payable": false,
      "stateMutability": "nonpayable",
      "type": "function"
    },
    {
      "constant": false,
      "inputs": [
        {
          "name": "transactionID",
          "type": "uint256"
        }
      ],
      "name": "getTransactionName",
      "outputs": [
        {
          "name": "",
          "type": "string"
        }
      ],
      "payable": false,
      "stateMutability": "nonpayable",
      "type": "function"
    },
    {
      "constant": false,
      "inputs": [
        {
          "name": "nodeAddress",
          "type": "address"
        }
      ],
      "name": "addNode",
      "outputs": [],
      "payable": false,
      "stateMutability": "nonpayable",
      "type": "function"
    }
  ],
  "bytecode": "0x608060405234801561001057600080fd5b5061164d806100206000396000f300608060405260043610610112576000357c0100000000000000000000000000000000000000000000000000000000900463ffffffff1680631ae30e6d14610117578063332b888d1461015c5780634da8caa11461018957806355dd8bf6146101d657806355eb7f341461021b578063898b6558146102725780638ab039291461029f5780639d95f1cc146102ec578063a5adff241461032f578063a76f49371461039c578063a9dd68951461040d578063b884c38a1461043a578063babe016a146104e0578063cb1f1b461461054d578063d0f591f81461059a578063dffa64f8146105c7578063f15775c01461063a578063f31ca13c1461067d578063fb449da5146106be578063fd32484c14610703575b600080fd5b34801561012357600080fd5b50610142600480360381019080803590602001909291905050506107a9565b604051808215151515815260200191505060405180910390f35b34801561016857600080fd5b50610187600480360381019080803590602001909291905050506107e3565b005b34801561019557600080fd5b506101d4600480360381019080803573ffffffffffffffffffffffffffffffffffffffff169060200190929190803590602001909291905050506108e0565b005b3480156101e257600080fd5b5061020160048036038101908080359060200190929190505050610928565b604051808215151515815260200191505060405180910390f35b34801561022757600080fd5b5061025c600480360381019080803573ffffffffffffffffffffffffffffffffffffffff169060200190929190505050610962565b6040518082815260200191505060405180910390f35b34801561027e57600080fd5b5061029d6004803603810190808035906020019092919050505061097a565b005b3480156102ab57600080fd5b506102ea60048036038101908080359060200190929190803573ffffffffffffffffffffffffffffffffffffffff1690602001909291905050506109b9565b005b3480156102f857600080fd5b5061032d600480360381019080803573ffffffffffffffffffffffffffffffffffffffff169060200190929190505050610b24565b005b34801561033b57600080fd5b5061035a60048036038101908080359060200190929190505050610bdd565b604051808273ffffffffffffffffffffffffffffffffffffffff1673ffffffffffffffffffffffffffffffffffffffff16815260200191505060405180910390f35b3480156103a857600080fd5b506103f760048036038101908080359060200190820180359060200191909192939192939080359060200190820180359060200191909192939192939080359060200190929190505050610c10565b6040518082815260200191505060405180910390f35b34801561041957600080fd5b5061043860048036038101908080359060200190929190505050610f8c565b005b34801561044657600080fd5b5061046560048036038101908080359060200190929190505050610fd1565b6040518080602001828103825283818151815260200191508051906020019080838360005b838110156104a557808201518184015260208101905061048a565b50505050905090810190601f1680156104d25780820380516001836020036101000a031916815260200191505b509250505060405180910390f35b3480156104ec57600080fd5b5061050b60048036038101908080359060200190929190505050611093565b604051808273ffffffffffffffffffffffffffffffffffffffff1673ffffffffffffffffffffffffffffffffffffffff16815260200191505060405180910390f35b34801561055957600080fd5b50610598600480360381019080803573ffffffffffffffffffffffffffffffffffffffff169060200190929190803590602001909291905050506110d0565b005b3480156105a657600080fd5b506105c56004803603810190808035906020019092919050505061117f565b005b3480156105d357600080fd5b5061063860048036038101908080359060200190929190803590602001908201803590602001908080601f0160208091040260200160405190810160405280939291908181526020018383808284378201915050505050509192919290505050611233565b005b34801561064657600080fd5b5061067b600480360381019080803573ffffffffffffffffffffffffffffffffffffffff1690602001909291905050506112a8565b005b34801561068957600080fd5b506106a860048036038101908080359060200190929190505050611303565b6040518082815260200191505060405180910390f35b3480156106ca57600080fd5b506106e96004803603810190808035906020019092919050505061132d565b604051808215151515815260200191505060405180910390f35b34801561070f57600080fd5b5061072e60048036038101908080359060200190929190505050611367565b6040518080602001828103825283818151815260200191508051906020019080838360005b8381101561076e578082015181840152602081019050610753565b50505050905090810190601f16801561079b5780820380516001836020036101000a031916815260200191505b509250505060405180910390f35b60006005828154811015156107ba57fe5b906000526020600020906007020160040160000160019054906101000a900460ff169050919050565b600080600460003373ffffffffffffffffffffffffffffffffffffffff1673ffffffffffffffffffffffffffffffffffffffff16815260200190815260200160002054915060058381548110151561083757fe5b906000526020600020906007020190506001600460008360050160009054906101000a900473ffffffffffffffffffffffffffffffffffffffff1673ffffffffffffffffffffffffffffffffffffffff1673ffffffffffffffffffffffffffffffffffffffff1681526020019081526020016000205403821415156108bb57600080fd5b60018160040160000160016101000a81548160ff021916908315150217905550505050565b80600460008473ffffffffffffffffffffffffffffffffffffffff1673ffffffffffffffffffffffffffffffffffffffff168152602001908152602001600020819055505050565b600060058281548110151561093957fe5b906000526020600020906007020160040160000160009054906101000a900460ff169050919050565b60026020528060005260406000206000915090505481565b600160058281548110151561098b57fe5b906000526020600020906007020160040160000160026101000a81548160ff02191690831515021790555050565b806005838154811015156109c957fe5b906000526020600020906007020160060160006101000a81548173ffffffffffffffffffffffffffffffffffffffff021916908373ffffffffffffffffffffffffffffffffffffffff1602179055506000600260008373ffffffffffffffffffffffffffffffffffffffff1673ffffffffffffffffffffffffffffffffffffffff16815260200190815260200160002054815481101515610a6657fe5b9060005260206000200160009054906101000a900473ffffffffffffffffffffffffffffffffffffffff1673ffffffffffffffffffffffffffffffffffffffff1663896da4eb8360006040518363ffffffff167c01000000000000000000000000000000000000000000000000000000000281526004018083815260200182815260200192505050600060405180830381600087803b158015610b0857600080fd5b505af1158015610b1c573d6000803e3d6000fd5b505050505050565b600080829150600160008390806001815401808255809150509060018203906000526020600020016000909192909190916101000a81548173ffffffffffffffffffffffffffffffffffffffff021916908373ffffffffffffffffffffffffffffffffffffffff16021790555003905080600260008573ffffffffffffffffffffffffffffffffffffffff1673ffffffffffffffffffffffffffffffffffffffff16815260200190815260200160002081905550505050565b60016020528060005260406000206000915054906101000a900473ffffffffffffffffffffffffffffffffffffffff1681565b6000610c1a611429565b610c2261145a565b608060405190810160405280600015158152602001600015158152602001600115158152602001600015158152509150600360003373ffffffffffffffffffffffffffffffffffffffff1673ffffffffffffffffffffffffffffffffffffffff16815260200190815260200160002060009054906101000a900460ff161515610caa57600080fd5b60e06040519081016040528089898080601f016020809104026020016040519081016040528093929190818152602001838380828437820191505050505050815260200187878080601f0160208091040260200160405190810160405280939291908181526020018383808284378201915050505050508152602001602060405190810160405280600081525081526020018581526020018381526020013373ffffffffffffffffffffffffffffffffffffffff1681526020013373ffffffffffffffffffffffffffffffffffffffff168152509050336001600085815260200190815260200160002060006101000a81548173ffffffffffffffffffffffffffffffffffffffff021916908373ffffffffffffffffffffffffffffffffffffffff1602179055506001600582908060018154018082558091505090600182039060005260206000209060070201600090919290919091506000820151816000019080519060200190610e1e9291906114cb565b506020820151816001019080519060200190610e3b9291906114cb565b506040820151816002019080519060200190610e589291906114cb565b506060820151816003015560808201518160040160008201518160000160006101000a81548160ff02191690831515021790555060208201518160000160016101000a81548160ff02191690831515021790555060408201518160000160026101000a81548160ff02191690831515021790555060608201518160000160036101000a81548160ff021916908315150217905550505060a08201518160050160006101000a81548173ffffffffffffffffffffffffffffffffffffffff021916908373ffffffffffffffffffffffffffffffffffffffff16021790555060c08201518160060160006101000a81548173ffffffffffffffffffffffffffffffffffffffff021916908373ffffffffffffffffffffffffffffffffffffffff1602179055505050039250505095945050505050565b6000600582815481101515610f9d57fe5b9060005260206000209060070201905060018160040160000160006101000a81548160ff0219169083151502179055505050565b6060600582815481101515610fe257fe5b90600052602060002090600702016002018054600181600116156101000203166002900480601f0160208091040260200160405190810160405280929190818152602001828054600181600116156101000203166002900480156110875780601f1061105c57610100808354040283529160200191611087565b820191906000526020600020905b81548152906001019060200180831161106a57829003601f168201915b50505050509050919050565b60006001600083815260200190815260200160002060009054906101000a900473ffffffffffffffffffffffffffffffffffffffff169050919050565b8173ffffffffffffffffffffffffffffffffffffffff1663176f964c826040518263ffffffff167c010000000000000000000000000000000000000000000000000000000002815260040180828152602001915050602060405180830381600087803b15801561113f57600080fd5b505af1158015611153573d6000803e3d6000fd5b505050506040513d602081101561116957600080fd5b8101908080519060200190929190505050505050565b3360058281548110151561118f57fe5b906000526020600020906007020160050160006101000a81548173ffffffffffffffffffffffffffffffffffffffff021916908373ffffffffffffffffffffffffffffffffffffffff160217905550336001600083815260200190815260200160002060006101000a81548173ffffffffffffffffffffffffffffffffffffffff021916908373ffffffffffffffffffffffffffffffffffffffff16021790555050565b600160058381548110151561124457fe5b906000526020600020906007020160040160000160036101000a81548160ff0219169083151502179055508060058381548110151561127f57fe5b906000526020600020906007020160020190805190602001906112a392919061154b565b505050565b6001600360008373ffffffffffffffffffffffffffffffffffffffff1673ffffffffffffffffffffffffffffffffffffffff16815260200190815260200160002060006101000a81548160ff02191690831515021790555050565b600060058281548110151561131457fe5b9060005260206000209060070201600301549050919050565b600060058281548110151561133e57fe5b906000526020600020906007020160040160000160039054906101000a900460ff169050919050565b606060058281548110151561137857fe5b90600052602060002090600702016000018054600181600116156101000203166002900480601f01602080910402602001604051908101604052809291908181526020018280546001816001161561010002031660029004801561141d5780601f106113f25761010080835404028352916020019161141d565b820191906000526020600020905b81548152906001019060200180831161140057829003601f168201915b50505050509050919050565b6080604051908101604052806000151581526020016000151581526020016000151581526020016000151581525090565b610140604051908101604052806060815260200160608152602001606081526020016000815260200161148b6115cb565b8152602001600073ffffffffffffffffffffffffffffffffffffffff168152602001600073ffffffffffffffffffffffffffffffffffffffff1681525090565b828054600181600116156101000203166002900490600052602060002090601f016020900481019282601f1061150c57805160ff191683800117855561153a565b8280016001018555821561153a579182015b8281111561153957825182559160200191906001019061151e565b5b50905061154791906115fc565b5090565b828054600181600116156101000203166002900490600052602060002090601f016020900481019282601f1061158c57805160ff19168380011785556115ba565b828001600101855582156115ba579182015b828111156115b957825182559160200191906001019061159e565b5b5090506115c791906115fc565b5090565b6080604051908101604052806000151581526020016000151581526020016000151581526020016000151581525090565b61161e91905b8082111561161a576000816000905550600101611602565b5090565b905600a165627a7a72305820286b5fd0207e2356ada8b81e0a03b997daeea800d3f6e31bb1760383511dfe380029",
  "source": "pragma solidity ^0.4.26;\n\n/**\n * @dev\n * \n * ----------------------------------------------------------------------------\n * Here are dev notes:\n * ----------------------------------------------------------------------------\n * MVP process for setting up supply chain and transaction exchanges:\n * \n * 1. Deploy SupplyChainTransactions contract from address1\n * 2. Deploy CocoaBeanFarmer contract using SupplyChainTransactions contract address (this address != address1)\n *   1. Set initialQuantity = 100\n * 3. Deploy Manufacturer contract using SupplyChainTransactions contract address (this address is the same as step 2’s address != address1)\n *   1. Set initialBeanCount = 100\n *   2. Set estimatedBeansToCoffeeRatio = 1\n *   3. Set estimatedBeanValueInWei = 1\n * 4. Deploy Carrier contract SupplyChainTransactions contract address (this address is the same as step 2’s address != address1)\n *   1. Set maxCapacityPerTransit = 10\n * 5. Run createBeanTransaction in the CocoaBeanFarmer contract\n *   1. Set name = test1\n *   2. Set description = First test to create bean txn\n *   3. Set quantityToSend = 10\n * \n * ----------------------------------------------------------------------------\n */\n\ncontract SupplyChainNode {\n    \n    uint256[] pendingTransactions;\n    mapping(uint256 => int) transactionToActionId;\n    uint256 index = 0;\n    \n    function addPendingTransaction(uint256 transactionID, int action) {\n        pendingTransactions.push(transactionID);\n        transactionToActionId[transactionID] = action;\n    }\n        \n    function getTopPendingAction() returns (int) {\n        return transactionToActionId[pendingTransactions[index]];\n    }\n    \n    function _removeTopPendingAction() private {\n        index = index + 1;\n    }\n    \n}\n\n\ncontract config {\n    /*\n        Defines constants that any two parties in the supply chain need to define transactions\n        Examples: prices, risk distribution ratios, refund policies, etc.\n        Must be agreed upon between two parties to exist\n    */\n}\n\n\n\ncontract Carrier is SupplyChainNode{\n    /*\n       manages the movement of transactions between two nodes in the supply chain network\n       main methods: can refund if any transaction has failed, specifics on payments defined by config contract [** to be constructed]\n    */\n\n    /*\n        constants\n    */\n    int maxCapacityPerTransit = 10;\n\n    /*\n        this should be retrieved by the config API / contract\n    */\n    int riskDistribution = 0;\n\n    /*\n        data structures\n    */\n    SupplyChainTransactions private _globalTransactions;\n\n    struct Transit {\n        string name;\n        uint status;    // 0 is progress and 1 is failed\n        int transactionID;\n        address sender;\n        address receiver;\n    }\n    \n    uint256[] pendingTransactions;\n    /*\n        TODO:\n        populate this pendingtransactions array with the transactions that need to processed\n        In this case transactions that need to be transported from A (farmer) to B (Manufacturer) address.\n    */\n\n    constructor(int maxCapacityPerTransit, address supplyChainTransactionsAddress) public {\n        maxCapacityPerTransit = maxCapacityPerTransit;\n        _globalTransactions = SupplyChainTransactions(supplyChainTransactionsAddress);\n        _globalTransactions.addTransactionCreator(this);\n        _globalTransactions.addSupplyChainParty(this, 0);\n        _globalTransactions.addNode(this);\n    }\n\n    function () external payable {}\n\n    Transit[] transits;\n\n    function addTransit(string name, int transactionID, address sender, address receiver) public returns (uint256) {\n        /*\n            update array of transits or any other datastructres;\n        */\n        Transit memory t = Transit(name, 0, transactionID, sender, receiver); // status initialized to 0 = in progress by default\n        transits.push(t);\n        return 0;\n    }\n\n    function checkTransitStatus(uint256 transitID) public view returns (int) {\n        /*\n            use data structure to lookup transit status quickly\n        */\n        if (transitID < 0 || transitID > transits.length - 1) {\n            return -1;\n        }\n        return int(transits[transitID].status);\n    }\n    \n    function getPendingTransaction() public view returns (int) {\n        /*\n            return the top pending transaction that this Carrier neds to processed\n            pendingTransaction[-1]\n        */\n        return 0;\n    }\n\n    function updateTransitStatus(uint256 transitID, uint status) public returns (bool) {\n        /*\n            use data structures to update the state of transitID denoting that the ship has failed to deliver the products\n            status = ENUM {0: in_progress, 1: failed, 2: completed}\n            someone updates with status = 1 failed, call internal method to make necessary actions or updates\n        */\n\n        if (transitID < 0 || transitID > transits.length - 1) {\n            return false;\n        }\n        if (transits[transitID].status == 1) {   \n            return false;\n        }\n        transits[transitID].status = status;\n        \n        if (status == 1) {\n            refundTransitValue(transitID);\n        }\n        else if (status == 2) {  // if completed, update owner \n            _globalTransactions.updateTransactionOwner(transits[transitID].receiver, uint256(transits[transitID].transactionID));\n        }    \n        return true;\n    }\n\n    function refundTransitValue(uint256 transitID) payable returns(bool) {\n        /*\n        transitID has failed\n        send transactionID value equally accross the sender and the receiver\n        this involves actually sending the ether\n        this method should be **payable**\n        */\n\n        if (transitID < 0 || transitID > transits.length - 1) {\n            return false;\n        }\n        address sender = transits[transitID].sender;\n        address receiver = transits[transitID].receiver;\n        uint256 transactionID = uint256(transits[transitID].transactionID);\n\n        int beanQuantity = int(_globalTransactions.getTransactionQuantity(transactionID));\n        uint256 saleValueInWei = uint256(beanQuantity);\n\n        if (address(this).balance < saleValueInWei) {\n            return false;\n        }\n        sender.transfer(saleValueInWei / 2);\n        receiver.transfer(saleValueInWei / 2);\n        return true;\n    }\n}\n\ncontract CocoaBeanFarmer is SupplyChainNode {\n\n    int quantity = 0; // total beans this farmer has \n    uint256[] pendingTransactions;  \n    SupplyChainTransactions private _globalTransactions;\n\n    constructor(int initialQuantity, address supplyChainTransactionsAddress) public {\n        quantity = initialQuantity;\n        _globalTransactions = SupplyChainTransactions(supplyChainTransactionsAddress);\n        _globalTransactions.addTransactionCreator(this);\n        _globalTransactions.addSupplyChainParty(this, 0);\n        _globalTransactions.addNode(this);\n    }\n\n    function beanBalance() external view returns (int) {\n        return quantity;\n    }\n\n    function claimBeans(int num_beans) {\n        quantity = quantity + num_beans;\n    }\n    \n    function () external payable {}\n    \n    function etherBalance() public view returns (uint256) {\n        return address(this).balance;\n    }\n    \n    \n    event BeanTransaction(\n        uint indexed _id,\n        string indexed _name,\n        string _description,\n        uint _quantityToSend\n    );\n    \n    function createBeanTransaction(\n        string name, string description, uint256 quantityToSend\n    ) external returns (bool) {\n        if (int(quantityToSend) >= quantity) {\n            return false;\n        }\n        uint256 transactionID = _globalTransactions.addTransaction(\n            name, description, quantityToSend\n        );\n        pendingTransactions.push(transactionID);\n        _globalTransactions.setTransactionPremature(transactionID);\n        quantity = quantity - int(quantityToSend);\n        \n        /**\n         * @dev \n         * \n         * Emits a new transaction to be logged on the next block. \n         * That log will contain the newly created transaction's info which\n         * we can listen to on the front-end. We'll use a websocket connection\n         * to update the front-end in real-time, according to the data in the\n         * emitted event.\n         */\n        emit BeanTransaction(transactionID, name, description, quantityToSend);\n        \n        return true;\n    }\n    \n    function isTransactionAccepted(uint256 transactionID) returns (bool) {\n        return _globalTransactions.isTransactionAccepted(transactionID);\n    }\n    \n    function isTransactionRejected(uint256 transactionID) returns (bool) {\n        return _globalTransactions.isTransactionRejected(transactionID);\n    }\n    \n    function getTransactionRejectedMsg(uint256 transactionID) returns (string) {\n        require(_globalTransactions.isTransactionRejected(transactionID));\n        return _globalTransactions.getTransactionRejectedMsg(transactionID);\n    }\n    \n    function reclaimRejectedBeans(uint256 transactionID) { \n        // separate method in case the farmer no longer wants the beans\n        require(_globalTransactions.isTransactionRejected(transactionID));\n        quantity = quantity + int256(_globalTransactions.getTransactionQuantity(transactionID));\n    }\n    \n    function sendBeanTransaction(uint256 transactionID, address recipient) {\n        _globalTransactions.addRecipient(transactionID, recipient);\n    }\n}\n\ncontract Manufacturer is SupplyChainNode {\n    int beanCount = 0; // num_beans this Manufacturer has \n    SupplyChainTransactions private _globalTransactions;\n    uint256[] pendingTransactions;\n    /*\n        TODO\n        add pending transactions array\n        whenever this Manufacturer has ownership or must do something with a transaction it should be added to this array\n        ideally this array should include \"transactions to accept\"\n    */\n    int beanValueInWei = 1;      // a bean is worth this many ether\n    int beansToCoffeeRatio = 50; // need 50 beans to produce 1 coffee \n\n    constructor(int initialBeanCount, int estimatedBeansToCoffeeRatio, int estimatedBeanValueInWei, address supplyChainTransactionsAddress) {\n        beanCount = initialBeanCount;\n        beansToCoffeeRatio = estimatedBeansToCoffeeRatio;\n        beanValueInWei = estimatedBeanValueInWei;\n        _globalTransactions = SupplyChainTransactions(supplyChainTransactionsAddress);\n        _globalTransactions.addSupplyChainParty(this, 1);\n        _globalTransactions.addNode(this);\n    }\n    \n    function () external payable {}\n    function getArray() public view returns (uint256[]) {\n        return pendingTransactions;\n    }\n    function getBalanceEther() public view returns (uint256) {\n        return address(this).balance;\n    }\n    \n    function capacity() internal returns (int) {\n        return int(beanCount/beansToCoffeeRatio);\n    }\n    \n    function getTotalBeanCapacity() external view returns (int) {\n        return capacity();\n    }\n    \n    function getPendingTransaction() external returns (uint256 transactionID) {\n        return pendingTransactions[pendingTransactions.length - 1];\n    }\n    \n    function addTransaction(uint256 transactionID) external returns (bool) {\n        pendingTransactions.push(transactionID);\n        return true;\n    }\n    \n    function requestBeans(address _to, int quantity) external view returns (bool) {\n        return false;\n    }\n\n    function produce(int quantity) external view returns (bool) {\n        int cap = capacity();\n        require(cap > quantity);\n        beanCount = beanCount - (quantity * beansToCoffeeRatio);\n    }\n    \n    function acceptBeans(uint256 transactionID) public payable returns (bool) { \n        // require(transactionToActionId[transactionID] == 0);\n        \n        int beanQuantity = int(_globalTransactions.getTransactionQuantity(transactionID));\n        uint256 saleValueInWei = uint256(beanQuantity * beanValueInWei);\n        \n        if (address(this).balance < saleValueInWei) { // doesnt enough etherBalance\n            _globalTransactions.rejectTransaction(transactionID, \"Not enough beans\");\n            return false;\n        }\n        \n        _globalTransactions.acceptTransaction(transactionID);\n        // address owner = _globalTransactions.getTransactionOwner(transactionID);\n        address(_globalTransactions.getTransactionOwner(transactionID)).transfer(saleValueInWei);\n        return true;\n    }\n    \n    function rejectBeans(uint256 transactionID, string description) public payable returns (bool) {\n        // require(transactionToActionId[transactionID] == 1);\n        _globalTransactions.rejectTransaction(transactionID, description);\n        address owner = _globalTransactions.getTransactionOwner(transactionID);\n        CocoaBeanFarmer farmer = CocoaBeanFarmer(owner);\n        // farmer.claimBeans(int256(_globalTransactions.getTransactionQuantity(transactionID)));\n        // CocoaBeanFarmer(owner).claimBeans(int256(_globalTransactions.getTransactionQuantity(transactionID)));\n        return true;\n    }\n}\n\n\ncontract SupplyChainTransactions {\n\n    struct Status {\n        bool accepted; // the requesting party is in compliance with transaction attributes\n        bool verified; // the verifiable party has verified the product\n        bool premature; // the responsible party has declared the existence of the product\n        bool rejected; // was rejected by Manufacturer\n    }\n    \n    struct Transaction {\n        string name;\n        string description;\n        string rejectedMsg;\n        uint256 quantity;\n        Status status;\n        address currentOwner;\n        address recipient;\n    }\n    \n    SupplyChainNode[] nodes;\n    \n    mapping (uint256 => address) public transactionToOwner; \n    mapping (address => uint256) public addressToSupplyChainNode;\n    mapping (address => bool) private authorizedTransactionCreators;\n    mapping (address => int) private partyToStage;\n\n    Transaction[] transactions;\n\n    function addTransaction(string name, string description, uint256 quantity) external returns (uint256 transactionID) {\n        Status memory status = Status({\n            accepted: false,\n            rejected: false,\n            verified: false,\n            premature: true\n        });\n\n        require(authorizedTransactionCreators[msg.sender]);\n\n        Transaction memory transaction = Transaction({\n            name: name,\n            description: description,\n            quantity: quantity,\n            status: status,\n            rejectedMsg: \"\",\n            currentOwner: msg.sender,\n            recipient: msg.sender\n        });\n        \n        transactionToOwner[transactionID] = msg.sender;\n\n        // log0(bytes32(transactions.length));\n        transactionID = transactions.push(transaction) - 1;\n    }\n    \n    function acceptTransaction(uint256 transactionID) {\n        Transaction transaction = transactions[transactionID];\n        transaction.status.accepted = true;\n    }\n    \n    function rejectTransaction(uint256 transactionID, string description) {\n        transactions[transactionID].status.rejected = true;\n        transactions[transactionID].rejectedMsg = description;\n    }\n    \n    function updateTransactionOwner(address ManufacturerAddress, uint256 transactionID) {\n        Manufacturer(ManufacturerAddress).addTransaction(transactionID);\n    }\n    \n    function setTransactionPremature(uint256 transactionID) {\n        transactions[transactionID].status.premature = true;\n    }\n\n    function verifyTransaction(uint256 transactionID) {\n        int verifierStage = partyToStage[msg.sender];\n        Transaction transaction = transactions[transactionID];\n        require(verifierStage == partyToStage[transaction.currentOwner] - 1);\n        transaction.status.verified = true;\n    }\n\n    function addRecipient(uint256 transactionID, address recipient) {\n        transactions[transactionID].recipient = recipient;\n        nodes[addressToSupplyChainNode[recipient]].addPendingTransaction(transactionID, 0);\n    }\n\n    function transferTransactionOwnership(uint256 transactionID) {\n        transactions[transactionID].currentOwner = msg.sender;\n        transactionToOwner[transactionID] = msg.sender;\n    }\n\n    function getTransactionOwner(uint256 transactionID) returns (address) {\n        return transactionToOwner[transactionID];\n    }\n    \n    function getTransactionQuantity(uint256 transactionID) returns (uint256) {\n        return transactions[transactionID].quantity;\n    }\n\n    function addTransactionCreator(address _address) public view {\n        authorizedTransactionCreators[_address] = true;\n    }\n\n    function addSupplyChainParty(address _address, int stage) public view {\n        partyToStage[_address] = stage;\n    }\n\n    function isTransactionVerified(uint256 transactionID) returns (bool) {\n        return transactions[transactionID].status.verified;\n    }\n\n    function isTransactionAccepted(uint256 transactionID) returns (bool) {\n        return transactions[transactionID].status.accepted;\n    }\n    \n    function isTransactionRejected(uint256 transactionID) returns (bool) {\n        return transactions[transactionID].status.rejected;\n    }\n    \n    function getTransactionRejectedMsg(uint256 transactionID) returns (string) {\n        return transactions[transactionID].rejectedMsg;\n    }\n    \n    function getTransactionName(uint256 transactionID) returns (string) {\n        return transactions[transactionID].name;\n    }\n    \n    function addNode(address nodeAddress) {\n        SupplyChainNode _instance = SupplyChainNode(nodeAddress);\n        uint256 index = nodes.push(_instance) - 1;\n        addressToSupplyChainNode[nodeAddress] = index;\n    }\n\n}",
  "sourcePath": "/Users/platocrat/Documents/GitHub/supply_chain_simulator/contracts/supplyChain.sol",
  "compiler": {
    "name": "solc",
    "version": "0.4.26+commit.4563c3fc.Emscripten.clang"
  },
  "schemaVersion": "3.3.1",
  "updatedAt": "2020-12-02T00:38:39.485Z",
  "devdoc": {
    "methods": {}
  },
  "userdoc": {
    "methods": {}
  }
}